{
    "_format": "hh-sol-artifact-1",
    "contractName": "MyEpicNFT",
    "sourceName": "contracts/MyEpicNFT.sol",
    "abi": [
        {
            "inputs": [],
            "stateMutability": "nonpayable",
            "type": "constructor"
        },
        {
            "anonymous": false,
            "inputs": [
                {
                    "indexed": true,
                    "internalType": "address",
                    "name": "owner",
                    "type": "address"
                },
                {
                    "indexed": true,
                    "internalType": "address",
                    "name": "approved",
                    "type": "address"
                },
                {
                    "indexed": true,
                    "internalType": "uint256",
                    "name": "tokenId",
                    "type": "uint256"
                }
            ],
            "name": "Approval",
            "type": "event"
        },
        {
            "anonymous": false,
            "inputs": [
                {
                    "indexed": true,
                    "internalType": "address",
                    "name": "owner",
                    "type": "address"
                },
                {
                    "indexed": true,
                    "internalType": "address",
                    "name": "operator",
                    "type": "address"
                },
                {
                    "indexed": false,
                    "internalType": "bool",
                    "name": "approved",
                    "type": "bool"
                }
            ],
            "name": "ApprovalForAll",
            "type": "event"
        },
        {
            "anonymous": false,
            "inputs": [
                {
                    "indexed": true,
                    "internalType": "address",
                    "name": "from",
                    "type": "address"
                },
                {
                    "indexed": true,
                    "internalType": "address",
                    "name": "to",
                    "type": "address"
                },
                {
                    "indexed": true,
                    "internalType": "uint256",
                    "name": "tokenId",
                    "type": "uint256"
                }
            ],
            "name": "Transfer",
            "type": "event"
        },
        {
            "inputs": [
                {
                    "internalType": "address",
                    "name": "to",
                    "type": "address"
                },
                {
                    "internalType": "uint256",
                    "name": "tokenId",
                    "type": "uint256"
                }
            ],
            "name": "approve",
            "outputs": [],
            "stateMutability": "nonpayable",
            "type": "function"
        },
        {
            "inputs": [
                {
                    "internalType": "address",
                    "name": "owner",
                    "type": "address"
                }
            ],
            "name": "balanceOf",
            "outputs": [
                {
                    "internalType": "uint256",
                    "name": "",
                    "type": "uint256"
                }
            ],
            "stateMutability": "view",
            "type": "function"
        },
        {
            "inputs": [
                {
                    "internalType": "uint256",
                    "name": "tokenId",
                    "type": "uint256"
                }
            ],
            "name": "getApproved",
            "outputs": [
                {
                    "internalType": "address",
                    "name": "",
                    "type": "address"
                }
            ],
            "stateMutability": "view",
            "type": "function"
        },
        {
            "inputs": [
                {
                    "internalType": "address",
                    "name": "owner",
                    "type": "address"
                },
                {
                    "internalType": "address",
                    "name": "operator",
                    "type": "address"
                }
            ],
            "name": "isApprovedForAll",
            "outputs": [
                {
                    "internalType": "bool",
                    "name": "",
                    "type": "bool"
                }
            ],
            "stateMutability": "view",
            "type": "function"
        },
        {
            "inputs": [
                {
                    "internalType": "string",
                    "name": "_name",
                    "type": "string"
                },
                {
                    "internalType": "string",
                    "name": "_description",
                    "type": "string"
                },
                {
                    "internalType": "string",
                    "name": "_image",
                    "type": "string"
                }
            ],
            "name": "makeAnEpicNFT",
            "outputs": [],
            "stateMutability": "nonpayable",
            "type": "function"
        },
        {
            "inputs": [],
            "name": "name",
            "outputs": [
                {
                    "internalType": "string",
                    "name": "",
                    "type": "string"
                }
            ],
            "stateMutability": "view",
            "type": "function"
        },
        {
            "inputs": [
                {
                    "internalType": "uint256",
                    "name": "tokenId",
                    "type": "uint256"
                }
            ],
            "name": "ownerOf",
            "outputs": [
                {
                    "internalType": "address",
                    "name": "",
                    "type": "address"
                }
            ],
            "stateMutability": "view",
            "type": "function"
        },
        {
            "inputs": [
                {
                    "internalType": "address",
                    "name": "from",
                    "type": "address"
                },
                {
                    "internalType": "address",
                    "name": "to",
                    "type": "address"
                },
                {
                    "internalType": "uint256",
                    "name": "tokenId",
                    "type": "uint256"
                }
            ],
            "name": "safeTransferFrom",
            "outputs": [],
            "stateMutability": "nonpayable",
            "type": "function"
        },
        {
            "inputs": [
                {
                    "internalType": "address",
                    "name": "from",
                    "type": "address"
                },
                {
                    "internalType": "address",
                    "name": "to",
                    "type": "address"
                },
                {
                    "internalType": "uint256",
                    "name": "tokenId",
                    "type": "uint256"
                },
                {
                    "internalType": "bytes",
                    "name": "_data",
                    "type": "bytes"
                }
            ],
            "name": "safeTransferFrom",
            "outputs": [],
            "stateMutability": "nonpayable",
            "type": "function"
        },
        {
            "inputs": [
                {
                    "internalType": "address",
                    "name": "operator",
                    "type": "address"
                },
                {
                    "internalType": "bool",
                    "name": "approved",
                    "type": "bool"
                }
            ],
            "name": "setApprovalForAll",
            "outputs": [],
            "stateMutability": "nonpayable",
            "type": "function"
        },
        {
            "inputs": [
                {
                    "internalType": "bytes4",
                    "name": "interfaceId",
                    "type": "bytes4"
                }
            ],
            "name": "supportsInterface",
            "outputs": [
                {
                    "internalType": "bool",
                    "name": "",
                    "type": "bool"
                }
            ],
            "stateMutability": "view",
            "type": "function"
        },
        {
            "inputs": [],
            "name": "symbol",
            "outputs": [
                {
                    "internalType": "string",
                    "name": "",
                    "type": "string"
                }
            ],
            "stateMutability": "view",
            "type": "function"
        },
        {
            "inputs": [
                {
                    "internalType": "uint256",
                    "name": "tokenId",
                    "type": "uint256"
                }
            ],
            "name": "tokenURI",
            "outputs": [
                {
                    "internalType": "string",
                    "name": "",
                    "type": "string"
                }
            ],
            "stateMutability": "view",
            "type": "function"
        },
        {
            "inputs": [
                {
                    "internalType": "address",
                    "name": "from",
                    "type": "address"
                },
                {
                    "internalType": "address",
                    "name": "to",
                    "type": "address"
                },
                {
                    "internalType": "uint256",
                    "name": "tokenId",
                    "type": "uint256"
                }
            ],
            "name": "transferFrom",
            "outputs": [],
            "stateMutability": "nonpayable",
            "type": "function"
        }
    ],
    "bytecode": "0x60806040523480156200001157600080fd5b506040518060400160405280600981526020017f5371756172654e465400000000000000000000000000000000000000000000008152506040518060400160405280600681526020017f5351554152450000000000000000000000000000000000000000000000000000815250816000908051906020019062000096929190620001cf565b508060019080519060200190620000af929190620001cf565b505050620000fd6040518060400160405280601b81526020017f57656c636f6d6520746f20746865204e465420636f6e747261637400000000008152506200010360201b62000bc81760201c565b620003ac565b620001a3816040516024016200011a9190620002c0565b6040516020818303038152906040527f41304fac000000000000000000000000000000000000000000000000000000007bffffffffffffffffffffffffffffffffffffffffffffffffffffffff19166020820180517bffffffffffffffffffffffffffffffffffffffffffffffffffffffff8381831617835250505050620001a660201b60201c565b50565b60008151905060006a636f6e736f6c652e6c6f679050602083016000808483855afa5050505050565b828054620001dd9062000336565b90600052602060002090601f0160209004810192826200020157600085556200024d565b82601f106200021c57805160ff19168380011785556200024d565b828001600101855582156200024d579182015b828111156200024c5782518255916020019190600101906200022f565b5b5090506200025c919062000260565b5090565b5b808211156200027b57600081600090555060010162000261565b5090565b60006200028c82620002e4565b620002988185620002ef565b9350620002aa81856020860162000300565b620002b5816200039b565b840191505092915050565b60006020820190508181036000830152620002dc81846200027f565b905092915050565b600081519050919050565b600082825260208201905092915050565b60005b838110156200032057808201518184015260208101905062000303565b8381111562000330576000848401525b50505050565b600060028204905060018216806200034f57607f821691505b602082108114156200036657620003656200036c565b5b50919050565b7f4e487b7100000000000000000000000000000000000000000000000000000000600052602260045260246000fd5b6000601f19601f8301169050919050565b6133d780620003bc6000396000f3fe608060405234801561001057600080fd5b50600436106100ea5760003560e01c806370a082311161008c578063a612854611610066578063a61285461461025b578063b88d4fde14610277578063c87b56dd14610293578063e985e9c5146102c3576100ea565b806370a08231146101f157806395d89b4114610221578063a22cb4651461023f576100ea565b8063095ea7b3116100c8578063095ea7b31461016d57806323b872dd1461018957806342842e0e146101a55780636352211e146101c1576100ea565b806301ffc9a7146100ef57806306fdde031461011f578063081812fc1461013d575b600080fd5b61010960048036038101906101049190612099565b6102f3565b6040516101169190612664565b60405180910390f35b6101276103d5565b604051610134919061267f565b60405180910390f35b61015760048036038101906101529190612182565b610467565b60405161016491906125fd565b60405180910390f35b6101876004803603810190610182919061205d565b6104ec565b005b6101a3600480360381019061019e9190611f57565b610604565b005b6101bf60048036038101906101ba9190611f57565b610664565b005b6101db60048036038101906101d69190612182565b610684565b6040516101e891906125fd565b60405180910390f35b61020b60048036038101906102069190611ef2565b610736565b6040516102189190612916565b60405180910390f35b6102296107ee565b604051610236919061267f565b60405180910390f35b61025960048036038101906102549190612021565b610880565b005b610275600480360381019061027091906120eb565b610896565b005b610291600480360381019061028c9190611fa6565b610980565b005b6102ad60048036038101906102a89190612182565b6109e2565b6040516102ba919061267f565b60405180910390f35b6102dd60048036038101906102d89190611f1b565b610b34565b6040516102ea9190612664565b60405180910390f35b60007f80ac58cd000000000000000000000000000000000000000000000000000000007bffffffffffffffffffffffffffffffffffffffffffffffffffffffff1916827bffffffffffffffffffffffffffffffffffffffffffffffffffffffff191614806103be57507f5b5e139f000000000000000000000000000000000000000000000000000000007bffffffffffffffffffffffffffffffffffffffffffffffffffffffff1916827bffffffffffffffffffffffffffffffffffffffffffffffffffffffff1916145b806103ce57506103cd82610c61565b5b9050919050565b6060600080546103e490612bc6565b80601f016020809104026020016040519081016040528092919081815260200182805461041090612bc6565b801561045d5780601f106104325761010080835404028352916020019161045d565b820191906000526020600020905b81548152906001019060200180831161044057829003601f168201915b5050505050905090565b600061047282610ccb565b6104b1576040517f08c379a00000000000000000000000000000000000000000000000000000000081526004016104a890612876565b60405180910390fd5b6004600083815260200190815260200160002060009054906101000a900473ffffffffffffffffffffffffffffffffffffffff169050919050565b60006104f782610684565b90508073ffffffffffffffffffffffffffffffffffffffff168373ffffffffffffffffffffffffffffffffffffffff161415610568576040517f08c379a000000000000000000000000000000000000000000000000000000000815260040161055f906128d6565b60405180910390fd5b8073ffffffffffffffffffffffffffffffffffffffff16610587610d37565b73ffffffffffffffffffffffffffffffffffffffff1614806105b657506105b5816105b0610d37565b610b34565b5b6105f5576040517f08c379a00000000000000000000000000000000000000000000000000000000081526004016105ec906127b6565b60405180910390fd5b6105ff8383610d3f565b505050565b61061561060f610d37565b82610df8565b610654576040517f08c379a000000000000000000000000000000000000000000000000000000000815260040161064b906128f6565b60405180910390fd5b61065f838383610ed6565b505050565b61067f83838360405180602001604052806000815250610980565b505050565b6000806002600084815260200190815260200160002060009054906101000a900473ffffffffffffffffffffffffffffffffffffffff169050600073ffffffffffffffffffffffffffffffffffffffff168173ffffffffffffffffffffffffffffffffffffffff16141561072d576040517f08c379a0000000000000000000000000000000000000000000000000000000008152600401610724906127f6565b60405180910390fd5b80915050919050565b60008073ffffffffffffffffffffffffffffffffffffffff168273ffffffffffffffffffffffffffffffffffffffff1614156107a7576040517f08c379a000000000000000000000000000000000000000000000000000000000815260040161079e906127d6565b60405180910390fd5b600360008373ffffffffffffffffffffffffffffffffffffffff1673ffffffffffffffffffffffffffffffffffffffff168152602001908152602001600020549050919050565b6060600180546107fd90612bc6565b80601f016020809104026020016040519081016040528092919081815260200182805461082990612bc6565b80156108765780601f1061084b57610100808354040283529160200191610876565b820191906000526020600020905b81548152906001019060200180831161085957829003601f168201915b5050505050905090565b61089261088b610d37565b8383611132565b5050565b60006108a2600761129f565b90506108ae33826112ad565b60006108dc8585856040516020016108c89392919061257e565b6040516020818303038152906040526112cb565b90506000816040516020016108f191906125db565b60405160208183030381529060405290506109416040518060400160405280600a81526020017f4d657461646174613a200000000000000000000000000000000000000000000081525082611489565b61094b8382611525565b61096e60405180606001604052806024815260200161333e602491398433611599565b6109786007611638565b505050505050565b61099161098b610d37565b83610df8565b6109d0576040517f08c379a00000000000000000000000000000000000000000000000000000000081526004016109c7906128f6565b60405180910390fd5b6109dc8484848461164e565b50505050565b60606109ed82610ccb565b610a2c576040517f08c379a0000000000000000000000000000000000000000000000000000000008152600401610a2390612856565b60405180910390fd5b6000600660008481526020019081526020016000208054610a4c90612bc6565b80601f0160208091040260200160405190810160405280929190818152602001828054610a7890612bc6565b8015610ac55780601f10610a9a57610100808354040283529160200191610ac5565b820191906000526020600020905b815481529060010190602001808311610aa857829003601f168201915b505050505090506000610ad66116aa565b9050600081511415610aec578192505050610b2f565b600082511115610b21578082604051602001610b0992919061255a565b60405160208183030381529060405292505050610b2f565b610b2a846116c1565b925050505b919050565b6000600560008473ffffffffffffffffffffffffffffffffffffffff1673ffffffffffffffffffffffffffffffffffffffff16815260200190815260200160002060008373ffffffffffffffffffffffffffffffffffffffff1673ffffffffffffffffffffffffffffffffffffffff16815260200190815260200160002060009054906101000a900460ff16905092915050565b610c5e81604051602401610bdc919061267f565b6040516020818303038152906040527f41304fac000000000000000000000000000000000000000000000000000000007bffffffffffffffffffffffffffffffffffffffffffffffffffffffff19166020820180517bffffffffffffffffffffffffffffffffffffffffffffffffffffffff8381831617835250505050611768565b50565b60007f01ffc9a7000000000000000000000000000000000000000000000000000000007bffffffffffffffffffffffffffffffffffffffffffffffffffffffff1916827bffffffffffffffffffffffffffffffffffffffffffffffffffffffff1916149050919050565b60008073ffffffffffffffffffffffffffffffffffffffff166002600084815260200190815260200160002060009054906101000a900473ffffffffffffffffffffffffffffffffffffffff1673ffffffffffffffffffffffffffffffffffffffff1614159050919050565b600033905090565b816004600083815260200190815260200160002060006101000a81548173ffffffffffffffffffffffffffffffffffffffff021916908373ffffffffffffffffffffffffffffffffffffffff160217905550808273ffffffffffffffffffffffffffffffffffffffff16610db283610684565b73ffffffffffffffffffffffffffffffffffffffff167f8c5be1e5ebec7d5bd14f71427d1e84f3dd0314c0f7b2291e5b200ac8c7c3b92560405160405180910390a45050565b6000610e0382610ccb565b610e42576040517f08c379a0000000000000000000000000000000000000000000000000000000008152600401610e3990612796565b60405180910390fd5b6000610e4d83610684565b90508073ffffffffffffffffffffffffffffffffffffffff168473ffffffffffffffffffffffffffffffffffffffff161480610ebc57508373ffffffffffffffffffffffffffffffffffffffff16610ea484610467565b73ffffffffffffffffffffffffffffffffffffffff16145b80610ecd5750610ecc8185610b34565b5b91505092915050565b8273ffffffffffffffffffffffffffffffffffffffff16610ef682610684565b73ffffffffffffffffffffffffffffffffffffffff1614610f4c576040517f08c379a0000000000000000000000000000000000000000000000000000000008152600401610f4390612896565b60405180910390fd5b600073ffffffffffffffffffffffffffffffffffffffff168273ffffffffffffffffffffffffffffffffffffffff161415610fbc576040517f08c379a0000000000000000000000000000000000000000000000000000000008152600401610fb390612756565b60405180910390fd5b610fc7838383611791565b610fd2600082610d3f565b6001600360008573ffffffffffffffffffffffffffffffffffffffff1673ffffffffffffffffffffffffffffffffffffffff16815260200190815260200160002060008282546110229190612adc565b925050819055506001600360008473ffffffffffffffffffffffffffffffffffffffff1673ffffffffffffffffffffffffffffffffffffffff168152602001908152602001600020600082825461107991906129fb565b92505081905550816002600083815260200190815260200160002060006101000a81548173ffffffffffffffffffffffffffffffffffffffff021916908373ffffffffffffffffffffffffffffffffffffffff160217905550808273ffffffffffffffffffffffffffffffffffffffff168473ffffffffffffffffffffffffffffffffffffffff167fddf252ad1be2c89b69c2b068fc378daa952ba7f163c4a11628f55a4df523b3ef60405160405180910390a4505050565b8173ffffffffffffffffffffffffffffffffffffffff168373ffffffffffffffffffffffffffffffffffffffff1614156111a1576040517f08c379a000000000000000000000000000000000000000000000000000000000815260040161119890612776565b60405180910390fd5b80600560008573ffffffffffffffffffffffffffffffffffffffff1673ffffffffffffffffffffffffffffffffffffffff16815260200190815260200160002060008473ffffffffffffffffffffffffffffffffffffffff1673ffffffffffffffffffffffffffffffffffffffff16815260200190815260200160002060006101000a81548160ff0219169083151502179055508173ffffffffffffffffffffffffffffffffffffffff168373ffffffffffffffffffffffffffffffffffffffff167f17307eab39ab6107e8899845ad3d59bd9653f200f220920489ca2b5937696c31836040516112929190612664565b60405180910390a3505050565b600081600001549050919050565b6112c7828260405180602001604052806000815250611796565b5050565b606060008251905060008114156112f45760405180602001604052806000815250915050611484565b6000600360028361130591906129fb565b61130f9190612a51565b600461131b9190612a82565b9050600060208261132c91906129fb565b67ffffffffffffffff81111561136b577f4e487b7100000000000000000000000000000000000000000000000000000000600052604160045260246000fd5b6040519080825280601f01601f19166020018201604052801561139d5781602001600182028036833780820191505090505b5090506000604051806060016040528060408152602001613362604091399050600181016020830160005b868110156114415760038101905062ffffff818a015116603f8160121c168401518060081b905060ff603f83600c1c1686015116810190508060081b905060ff603f8360061c1686015116810190508060081b905060ff603f831686015116810190508060e01b905080845260048401935050506113c8565b50600386066001811461145b576002811461146b57611476565b613d3d60f01b6002830352611476565b603d60f81b60018303525b508484525050819450505050505b919050565b611521828260405160240161149f9291906126a1565b6040516020818303038152906040527f4b5c4277000000000000000000000000000000000000000000000000000000007bffffffffffffffffffffffffffffffffffffffffffffffffffffffff19166020820180517bffffffffffffffffffffffffffffffffffffffffffffffffffffffff8381831617835250505050611768565b5050565b61152e82610ccb565b61156d576040517f08c379a000000000000000000000000000000000000000000000000000000000815260040161156490612816565b60405180910390fd5b80600660008481526020019081526020016000209080519060200190611594929190611d16565b505050565b6116338383836040516024016115b1939291906126d8565b6040516020818303038152906040527fe3849f79000000000000000000000000000000000000000000000000000000007bffffffffffffffffffffffffffffffffffffffffffffffffffffffff19166020820180517bffffffffffffffffffffffffffffffffffffffffffffffffffffffff8381831617835250505050611768565b505050565b6001816000016000828254019250508190555050565b611659848484610ed6565b611665848484846117f1565b6116a4576040517f08c379a000000000000000000000000000000000000000000000000000000000815260040161169b90612716565b60405180910390fd5b50505050565b606060405180602001604052806000815250905090565b60606116cc82610ccb565b61170b576040517f08c379a0000000000000000000000000000000000000000000000000000000008152600401611702906128b6565b60405180910390fd5b60006117156116aa565b905060008151116117355760405180602001604052806000815250611760565b8061173f84611988565b60405160200161175092919061255a565b6040516020818303038152906040525b915050919050565b60008151905060006a636f6e736f6c652e6c6f679050602083016000808483855afa5050505050565b505050565b6117a08383611b35565b6117ad60008484846117f1565b6117ec576040517f08c379a00000000000000000000000000000000000000000000000000000000081526004016117e390612716565b60405180910390fd5b505050565b60006118128473ffffffffffffffffffffffffffffffffffffffff16611d03565b1561197b578373ffffffffffffffffffffffffffffffffffffffff1663150b7a0261183b610d37565b8786866040518563ffffffff1660e01b815260040161185d9493929190612618565b602060405180830381600087803b15801561187757600080fd5b505af19250505080156118a857506040513d601f19601f820116820180604052508101906118a591906120c2565b60015b61192b573d80600081146118d8576040519150601f19603f3d011682016040523d82523d6000602084013e6118dd565b606091505b50600081511415611923576040517f08c379a000000000000000000000000000000000000000000000000000000000815260040161191a90612716565b60405180910390fd5b805181602001fd5b63150b7a0260e01b7bffffffffffffffffffffffffffffffffffffffffffffffffffffffff1916817bffffffffffffffffffffffffffffffffffffffffffffffffffffffff191614915050611980565b600190505b949350505050565b606060008214156119d0576040518060400160405280600181526020017f30000000000000000000000000000000000000000000000000000000000000008152509050611b30565b600082905060005b60008214611a025780806119eb90612c29565b915050600a826119fb9190612a51565b91506119d8565b60008167ffffffffffffffff811115611a44577f4e487b7100000000000000000000000000000000000000000000000000000000600052604160045260246000fd5b6040519080825280601f01601f191660200182016040528015611a765781602001600182028036833780820191505090505b5090505b60008514611b2957600182611a8f9190612adc565b9150600a85611a9e9190612c72565b6030611aaa91906129fb565b60f81b818381518110611ae6577f4e487b7100000000000000000000000000000000000000000000000000000000600052603260045260246000fd5b60200101907effffffffffffffffffffffffffffffffffffffffffffffffffffffffffffff1916908160001a905350600a85611b229190612a51565b9450611a7a565b8093505050505b919050565b600073ffffffffffffffffffffffffffffffffffffffff168273ffffffffffffffffffffffffffffffffffffffff161415611ba5576040517f08c379a0000000000000000000000000000000000000000000000000000000008152600401611b9c90612836565b60405180910390fd5b611bae81610ccb565b15611bee576040517f08c379a0000000000000000000000000000000000000000000000000000000008152600401611be590612736565b60405180910390fd5b611bfa60008383611791565b6001600360008473ffffffffffffffffffffffffffffffffffffffff1673ffffffffffffffffffffffffffffffffffffffff1681526020019081526020016000206000828254611c4a91906129fb565b92505081905550816002600083815260200190815260200160002060006101000a81548173ffffffffffffffffffffffffffffffffffffffff021916908373ffffffffffffffffffffffffffffffffffffffff160217905550808273ffffffffffffffffffffffffffffffffffffffff16600073ffffffffffffffffffffffffffffffffffffffff167fddf252ad1be2c89b69c2b068fc378daa952ba7f163c4a11628f55a4df523b3ef60405160405180910390a45050565b600080823b905060008111915050919050565b828054611d2290612bc6565b90600052602060002090601f016020900481019282611d445760008555611d8b565b82601f10611d5d57805160ff1916838001178555611d8b565b82800160010185558215611d8b579182015b82811115611d8a578251825591602001919060010190611d6f565b5b509050611d989190611d9c565b5090565b5b80821115611db5576000816000905550600101611d9d565b5090565b6000611dcc611dc784612956565b612931565b905082815260208101848484011115611de457600080fd5b611def848285612b84565b509392505050565b6000611e0a611e0584612987565b612931565b905082815260208101848484011115611e2257600080fd5b611e2d848285612b84565b509392505050565b600081359050611e44816132e1565b92915050565b600081359050611e59816132f8565b92915050565b600081359050611e6e8161330f565b92915050565b600081519050611e838161330f565b92915050565b600082601f830112611e9a57600080fd5b8135611eaa848260208601611db9565b91505092915050565b600082601f830112611ec457600080fd5b8135611ed4848260208601611df7565b91505092915050565b600081359050611eec81613326565b92915050565b600060208284031215611f0457600080fd5b6000611f1284828501611e35565b91505092915050565b60008060408385031215611f2e57600080fd5b6000611f3c85828601611e35565b9250506020611f4d85828601611e35565b9150509250929050565b600080600060608486031215611f6c57600080fd5b6000611f7a86828701611e35565b9350506020611f8b86828701611e35565b9250506040611f9c86828701611edd565b9150509250925092565b60008060008060808587031215611fbc57600080fd5b6000611fca87828801611e35565b9450506020611fdb87828801611e35565b9350506040611fec87828801611edd565b925050606085013567ffffffffffffffff81111561200957600080fd5b61201587828801611e89565b91505092959194509250565b6000806040838503121561203457600080fd5b600061204285828601611e35565b925050602061205385828601611e4a565b9150509250929050565b6000806040838503121561207057600080fd5b600061207e85828601611e35565b925050602061208f85828601611edd565b9150509250929050565b6000602082840312156120ab57600080fd5b60006120b984828501611e5f565b91505092915050565b6000602082840312156120d457600080fd5b60006120e284828501611e74565b91505092915050565b60008060006060848603121561210057600080fd5b600084013567ffffffffffffffff81111561211a57600080fd5b61212686828701611eb3565b935050602084013567ffffffffffffffff81111561214357600080fd5b61214f86828701611eb3565b925050604084013567ffffffffffffffff81111561216c57600080fd5b61217886828701611eb3565b9150509250925092565b60006020828403121561219457600080fd5b60006121a284828501611edd565b91505092915050565b6121b481612b10565b82525050565b6121c381612b22565b82525050565b60006121d4826129b8565b6121de81856129ce565b93506121ee818560208601612b93565b6121f781612d5f565b840191505092915050565b600061220d826129c3565b61221781856129df565b9350612227818560208601612b93565b61223081612d5f565b840191505092915050565b6000612246826129c3565b61225081856129f0565b9350612260818560208601612b93565b80840191505092915050565b60006122796012836129f0565b915061228482612d70565b601282019050919050565b600061229c6032836129df565b91506122a782612d99565b604082019050919050565b60006122bf601c836129df565b91506122ca82612de8565b602082019050919050565b60006122e26024836129df565b91506122ed82612e11565b604082019050919050565b60006123056019836129df565b915061231082612e60565b602082019050919050565b6000612328602c836129df565b915061233382612e89565b604082019050919050565b600061234b6038836129df565b915061235682612ed8565b604082019050919050565b600061236e602a836129df565b915061237982612f27565b604082019050919050565b60006123916029836129df565b915061239c82612f76565b604082019050919050565b60006123b4602e836129df565b91506123bf82612fc5565b604082019050919050565b60006123d76002836129f0565b91506123e282613014565b600282019050919050565b60006123fa6020836129df565b91506124058261303d565b602082019050919050565b600061241d6031836129df565b915061242882613066565b604082019050919050565b6000612440602c836129df565b915061244b826130b5565b604082019050919050565b60006124636029836129df565b915061246e82613104565b604082019050919050565b6000612486602f836129df565b915061249182613153565b604082019050919050565b60006124a96027836129f0565b91506124b4826131a2565b602782019050919050565b60006124cc600a836129f0565b91506124d7826131f1565b600a82019050919050565b60006124ef6021836129df565b91506124fa8261321a565b604082019050919050565b6000612512601d836129f0565b915061251d82613269565b601d82019050919050565b60006125356031836129df565b915061254082613292565b604082019050919050565b61255481612b7a565b82525050565b6000612566828561223b565b9150612572828461223b565b91508190509392505050565b6000612589826124bf565b9150612595828661223b565b91506125a08261226c565b91506125ac828561223b565b91506125b78261249c565b91506125c3828461223b565b91506125ce826123ca565b9150819050949350505050565b60006125e682612505565b91506125f2828461223b565b915081905092915050565b600060208201905061261260008301846121ab565b92915050565b600060808201905061262d60008301876121ab565b61263a60208301866121ab565b612647604083018561254b565b818103606083015261265981846121c9565b905095945050505050565b600060208201905061267960008301846121ba565b92915050565b600060208201905081810360008301526126998184612202565b905092915050565b600060408201905081810360008301526126bb8185612202565b905081810360208301526126cf8184612202565b90509392505050565b600060608201905081810360008301526126f28186612202565b9050612701602083018561254b565b61270e60408301846121ab565b949350505050565b6000602082019050818103600083015261272f8161228f565b9050919050565b6000602082019050818103600083015261274f816122b2565b9050919050565b6000602082019050818103600083015261276f816122d5565b9050919050565b6000602082019050818103600083015261278f816122f8565b9050919050565b600060208201905081810360008301526127af8161231b565b9050919050565b600060208201905081810360008301526127cf8161233e565b9050919050565b600060208201905081810360008301526127ef81612361565b9050919050565b6000602082019050818103600083015261280f81612384565b9050919050565b6000602082019050818103600083015261282f816123a7565b9050919050565b6000602082019050818103600083015261284f816123ed565b9050919050565b6000602082019050818103600083015261286f81612410565b9050919050565b6000602082019050818103600083015261288f81612433565b9050919050565b600060208201905081810360008301526128af81612456565b9050919050565b600060208201905081810360008301526128cf81612479565b9050919050565b600060208201905081810360008301526128ef816124e2565b9050919050565b6000602082019050818103600083015261290f81612528565b9050919050565b600060208201905061292b600083018461254b565b92915050565b600061293b61294c565b90506129478282612bf8565b919050565b6000604051905090565b600067ffffffffffffffff82111561297157612970612d30565b5b61297a82612d5f565b9050602081019050919050565b600067ffffffffffffffff8211156129a2576129a1612d30565b5b6129ab82612d5f565b9050602081019050919050565b600081519050919050565b600081519050919050565b600082825260208201905092915050565b600082825260208201905092915050565b600081905092915050565b6000612a0682612b7a565b9150612a1183612b7a565b9250827fffffffffffffffffffffffffffffffffffffffffffffffffffffffffffffffff03821115612a4657612a45612ca3565b5b828201905092915050565b6000612a5c82612b7a565b9150612a6783612b7a565b925082612a7757612a76612cd2565b5b828204905092915050565b6000612a8d82612b7a565b9150612a9883612b7a565b9250817fffffffffffffffffffffffffffffffffffffffffffffffffffffffffffffffff0483118215151615612ad157612ad0612ca3565b5b828202905092915050565b6000612ae782612b7a565b9150612af283612b7a565b925082821015612b0557612b04612ca3565b5b828203905092915050565b6000612b1b82612b5a565b9050919050565b60008115159050919050565b60007fffffffff0000000000000000000000000000000000000000000000000000000082169050919050565b600073ffffffffffffffffffffffffffffffffffffffff82169050919050565b6000819050919050565b82818337600083830152505050565b60005b83811015612bb1578082015181840152602081019050612b96565b83811115612bc0576000848401525b50505050565b60006002820490506001821680612bde57607f821691505b60208210811415612bf257612bf1612d01565b5b50919050565b612c0182612d5f565b810181811067ffffffffffffffff82111715612c2057612c1f612d30565b5b80604052505050565b6000612c3482612b7a565b91507fffffffffffffffffffffffffffffffffffffffffffffffffffffffffffffffff821415612c6757612c66612ca3565b5b600182019050919050565b6000612c7d82612b7a565b9150612c8883612b7a565b925082612c9857612c97612cd2565b5b828206905092915050565b7f4e487b7100000000000000000000000000000000000000000000000000000000600052601160045260246000fd5b7f4e487b7100000000000000000000000000000000000000000000000000000000600052601260045260246000fd5b7f4e487b7100000000000000000000000000000000000000000000000000000000600052602260045260246000fd5b7f4e487b7100000000000000000000000000000000000000000000000000000000600052604160045260246000fd5b6000601f19601f8301169050919050565b7f222c226465736372697074696f6e223a20220000000000000000000000000000600082015250565b7f4552433732313a207472616e7366657220746f206e6f6e20455243373231526560008201527f63656976657220696d706c656d656e7465720000000000000000000000000000602082015250565b7f4552433732313a20746f6b656e20616c7265616479206d696e74656400000000600082015250565b7f4552433732313a207472616e7366657220746f20746865207a65726f2061646460008201527f7265737300000000000000000000000000000000000000000000000000000000602082015250565b7f4552433732313a20617070726f766520746f2063616c6c657200000000000000600082015250565b7f4552433732313a206f70657261746f7220717565727920666f72206e6f6e657860008201527f697374656e7420746f6b656e0000000000000000000000000000000000000000602082015250565b7f4552433732313a20617070726f76652063616c6c6572206973206e6f74206f7760008201527f6e6572206e6f7220617070726f76656420666f7220616c6c0000000000000000602082015250565b7f4552433732313a2062616c616e636520717565727920666f7220746865207a6560008201527f726f206164647265737300000000000000000000000000000000000000000000602082015250565b7f4552433732313a206f776e657220717565727920666f72206e6f6e657869737460008201527f656e7420746f6b656e0000000000000000000000000000000000000000000000602082015250565b7f45524337323155524953746f726167653a2055524920736574206f66206e6f6e60008201527f6578697374656e7420746f6b656e000000000000000000000000000000000000602082015250565b7f227d000000000000000000000000000000000000000000000000000000000000600082015250565b7f4552433732313a206d696e7420746f20746865207a65726f2061646472657373600082015250565b7f45524337323155524953746f726167653a2055524920717565727920666f722060008201527f6e6f6e6578697374656e7420746f6b656e000000000000000000000000000000602082015250565b7f4552433732313a20617070726f76656420717565727920666f72206e6f6e657860008201527f697374656e7420746f6b656e0000000000000000000000000000000000000000602082015250565b7f4552433732313a207472616e73666572206f6620746f6b656e2074686174206960008201527f73206e6f74206f776e0000000000000000000000000000000000000000000000602082015250565b7f4552433732314d657461646174613a2055524920717565727920666f72206e6f60008201527f6e6578697374656e7420746f6b656e0000000000000000000000000000000000602082015250565b7f222c2022696d616765223a2022646174613a696d6167652f7376672b786d6c3b60008201527f6261736536342c00000000000000000000000000000000000000000000000000602082015250565b7f7b226e616d65223a202200000000000000000000000000000000000000000000600082015250565b7f4552433732313a20617070726f76616c20746f2063757272656e74206f776e6560008201527f7200000000000000000000000000000000000000000000000000000000000000602082015250565b7f646174613a6170706c69636174696f6e2f6a736f6e3b6261736536342c000000600082015250565b7f4552433732313a207472616e736665722063616c6c6572206973206e6f74206f60008201527f776e6572206e6f7220617070726f766564000000000000000000000000000000602082015250565b6132ea81612b10565b81146132f557600080fd5b50565b61330181612b22565b811461330c57600080fd5b50565b61331881612b2e565b811461332357600080fd5b50565b61332f81612b7a565b811461333a57600080fd5b5056fe416e204e465420772f494420257320686173206265656e206d696e74656420746f2025734142434445464748494a4b4c4d4e4f505152535455565758595a6162636465666768696a6b6c6d6e6f707172737475767778797a303132333435363738392b2fa2646970667358221220019476dbc8805912aa10543490232a4c124bc3ffbfdefbafc2db245a7941bf9c64736f6c63430008040033",
    "linkReferences": {},
    "deployedLinkReferences": {}
}